:020000040800F2
:10000000C816002045010008150A0008C1090008AB
:10001000110A0008A1080008171C000800000000D1
:100020000000000000000000000000005D18000853
:10003000A508000800000000B701000871190008B9
:100040005F0100085F0100085F0100085F01000810
:100050005F0100085F0100085F0100085F01000800
:100060005F0100085F0100085F0100085F010008F0
:100070005F0100085F0100085F0100085F010008E0
:100080005F0100085F0100085F0100085F010008D0
:100090005F0100085F0100085F0100085F010008C0
:1000A0005F0100085F0100085F0100085F010008B0
:1000B0005F0100085F0100085F0100085F010008A0
:1000C0005F0100085F0100085F0100085F01000890
:1000D0005F010008ED1900085F0100085F010008DA
:1000E0005F0100085F0100085F0100085F01000870
:1000F0005F0100085F0100085F0100085F01000860
:100100005F0100085F0100085F0100085F0100084F
:100110005F0100085F0100085F0100085F0100083F
:100120005F0100085F0100085F0100085F0100082F
:10013000DFF80CD000F014FB00480047012700084E
:10014000C81600200648804706480047FEE7FEE73D
:10015000FEE7FEE7FEE7FEE7FEE7FEE7FEE7FEE777
:100160008D19000831010008EFF3108072B6704756
:1001700080F310887047204C204D25604FF000041C
:1001800084F309881E4C4FF0010525701D4C4FF07B
:100190008055256062B6FEE730B41A4C4FF08055AA
:1001A000256030BC704730B4164C4FF08055256048
:1001B00030BC704700BF72B6EFF3098028B1203819
:1001C00080E8F00F10490968086000B50F488047C3
:1001D0005DF804EB0E480F490A7802700A480E4990
:1001E0000A680260106890E8F00F203080F30988F8
:1001F0004EF0040E62B6704720ED00E00000FFFFF5
:100200005E00002004ED00E06400002059100008AA
:1002100053000020540000206C000020F0B480EA5D
:100220000102D40F4200B2EB410F02D2024608464F
:1002300011464A0042D0C30DDDB2C1F3C752AD1A18
:10024000202D35DAC1F3160141F4000204B1524207
:10025000C5F1200602FA06F12A411044B3EBD05F43
:1002600023D0C4B1012DA0EBC35009DCF0BC4FF08A
:10027000004202EAC352DBB200F5000000F089B888
:10028000400000F1807000EBC350A0F1807040EAA4
:10029000D170490009E0490841EAC071A0EBC350A0
:1002A00000F50000400800EBC350F0BC00F068B857
:1002B0006142012202EB4101001BF6E7F0BC7047EE
:1002C00081F00041AAE780F00040A7E700F000427B
:1002D00030F000400AD0C10D01F56071C0F3160086
:1002E00042EA0151C208400711437047002001460D
:1002F000704730B50B46014600202022012409E05A
:1003000021FA02F59D4205D303FA02F5491B04FACE
:1003100002F52844151EA2F10102F1DC30BD2DE9E1
:10032000F05F0546002092469B4688460646814679
:1003300040241BE0284641464746224600F031FA59
:1003400053465A46C01A914110D3114618462246C8
:1003500000F018FA2D1A67EB01084F4622460120DB
:10036000002100F00FFA17EB00094E41201EA4F106
:100370000104DFDC484631462A464346BDE8F09F8B
:100380000029A8BF7047401C490008BF20F00100A9
:10039000704710B4B0FA80FC00FA0CF050EA010487
:1003A00004BF10BC704749B1CCF1200421FA04F419
:1003B00011FA0CF118BF012121430843A3EB0C01F2
:1003C000CB1D4FEA00614FEA102042BF002010BC55
:1003D000704700EBC35010440029A4BF10BC704705
:1003E000401C490008BF20F0010010BC70472DE9F7
:1003F000FE4F804681EA0300C00F0C46009021F0BA
:10040000004123F00045B8EB0200A94105D2404667
:10041000214690461C460B46024623F000401043FE
:1004200047D0270DC7F30A00C3F30A510290401AC0
:10043000019040286BDAC3F3130040F4801B00984E
:10044000924620B10023D2EB030A63EB0B0B019819
:100450005946C0F14002504600F094F906460D4658
:1004600050465946019A00F0ACF910EB0800614182
:10047000002487EA115284EAE7731A4340D0009AB5
:1004800062B3019A012A4FEA075215DC001B61EBA7
:1004900002014FF0004202EA0752CDE90042001C7F
:1004A00041F5801132462B4600F0ACF903B0BDE8AF
:1004B000F08F40462146F9E7001B61EB0201001C6A
:1004C00041F5801300185B412018A2F5001747EB97
:1004D000030140EAD570B6196D4111E06D084FEA8D
:1004E000360645EAC0754FEA0752001B61EB020170
:1004F000001C41F5801149084FEA300000195141B4
:1005000032462B4603B0BDE8F04F00F06CB90098BE
:10051000012240000023D0EB020263EBE07300985D
:1005200021464FEAE074B8EB000061EB0401E9E713
:1005300083F000435BE781F0004158E72DE9FE4F6F
:1005400081EA030404F0004421F0004100944FF0DC
:10055000000B23F0004350EA01045ED052EA03048A
:100560005BD0C3F30A54C1F30A552C44A4F2F3340C
:100570000194A0FB0254C1F3130141F48011C3F3B1
:10058000130343F4801301FB024400FB034E840A6F
:10059000970A44EA815447EA8357A4FB0768029507
:1005A0008D0A05FB07854FEA932C04FB0C542705A5
:1005B000029D4FEA065847EA1637B5EB08056EEB81
:1005C000070C870E920E47EA811742EA8312A7FBB7
:1005D0000201B6EB0B0164EB00042B0D43EA0C3374
:1005E0005E1844EB1C50DA465146E7FB0201C5F3A6
:1005F00013044FEA0B3343EA14534FEA0432019CCD
:1006000043EA0603A4F10C040294009CCDE900B473
:1006100000F0F8F803B0BDE8F08F00200146F9E7DC
:100620002DE9F04D81EA030404F0004B21F0004570
:1006300014464FF0000A23F0004150EA050220D092
:1006400054EA01021DD0C5F30A570246C5F313034D
:10065000C1F31300C1F30A5640F4801543F480132C
:10066000A7EB0608101BD64608F2FD3873EB050011
:1006700002D308F1010801E092185B41B8F1000FC4
:1006800003DA00200146BDE8F08D00204FF4801110
:10069000064684460EE0171B73EB050705D3121BB5
:1006A00063EB050306434CEA010C49084FEA3000AE
:1006B00092185B4150EA0107EDD152EA030012D0D3
:1006C00082EA040083EA0501084305D0101BAB4110
:1006D00006D20122002306E000224FF0004302E090
:1006E0006FF0010253101AEB06004CEB085110EBAF
:1006F0000A0041EB0B01BDE8F04D00F074B8C1F306
:100700000A52C1F3130140F2FF3341F480119A42BF
:1007100002DA00200146704740F233439A42A2F2C7
:10072000334202DC524200F03CB800F02BB800002B
:1007300030B5041E71F1000404DB4FF00044404268
:1007400064EB0101141E73F1000405DB1C464FF03D
:100750000043524263EB0403994208BF904230BD0C
:10076000064C074D06E0E06840F0010394E80700FE
:1007700098471034AC42F6D3FFF7DEFC3829000866
:1007800058290008202A04DB203A00FA02F1002050
:1007900070479140C2F1200320FA03F319439040BF
:1007A0007047202A04DB203A21FA02F0002170472A
:1007B00021FA02F3D040C2F12002914008431946C9
:1007C0007047202A06DBCB17203A41FA02F043EAB1
:1007D000E07306E041FA02F3D040C2F120029140FA
:1007E00008431946704710B5141E73F1000408DA67
:1007F000401C41F1000192185B411A4301D120F0E5
:10080000010010BD2DE9F04D92469B4611B1B1FAA1
:1008100081F202E0B0FA80F220329046FFF7B2FF98
:1008200004460F4640EA0A0041EA0B0153465A4685
:10083000084313D0114653EA010019D0C8F1400211
:100840005046FFF7AEFF05460E4650465946424613
:10085000FFF798FF084305D0012004E02046394601
:10086000BDE8F08D0020054346EAE0762C4337438F
:100870000A986305E40AA0EB08000022FD0A44EA96
:1008800047540A3002D500200146E9E70105101956
:100890006941DDE9084500196941BDE8F04DA2E76D
:1008A00000BFFEE770472DE9F04102460025002613
:1008B000002000230024002791F803C00CF00F054E
:1008C00091F803C00CF0100CBCF1000F03D091F8AC
:1008D00002C04CEA050591F800C0BCF1000F31D010
:1008E000146800202BE04FF0010C0CFA00F3B1F873
:1008F00000C00CEA03069E4220D183004FF00F0C8B
:100900000CFA03F7BC4305FA03FC4CEA040491F823
:1009100003C0BCF1280F06D14FF0010C0CFA00FC0B
:10092000C2F814C00AE091F803C0BCF1480F05D129
:100930004FF0010C0CFA00FCC2F810C0401C082853
:10094000D1D31460B1F800C0BCF1FF0F34DD54689E
:1009500000202EE000F1080C4FF0010808FA0CF31B
:10096000B1F800C00CEA03069E4221D183004FF08B
:100970000F0C0CFA03F7BC4305FA03FC4CEA040421
:1009800091F803C0BCF1280F05D100F1080C08FA5A
:100990000CF8C2F8148091F803C0BCF1480F07D1DD
:1009A00000F1080C4FF0010808FA0CF8C2F81080AA
:1009B000401C0828CED35460BDE8F0810161704727
:1009C00000BFFEE708B50121482000F0CDFE202041
:1009D000ADF8000010208DF8030003208DF8020010
:1009E00069460948FFF75FFF20210748FFF7E6FF48
:1009F0002020ADF8000069460448FFF754FF20218D
:100A00000248FFF7DBFF08BD000C01400018014061
:100A100000BFFEE77047000070B5002100230F22E1
:100A2000C47804B3154C246804F4E064C4F5E064AD
:100A3000210AC1F10403CA40447804FA03F184781E
:100A40001440214309010E4C0678A155047804F0A6
:100A50001F050124AC4005786D11AD0005F1E025BE
:100A6000C5F8004109E0047804F01F050124AC40FA
:100A7000044D0678761145F8264070BD0CED00E077
:100A800000E400E080E100E002490143024A116015
:100A9000704700000000FA050CED00E010B500F012
:100AA00013F800F0E5FB00F00DFC00F02DFC00F069
:100AB000B5FB00F087FB00F0C1FC00F065FC00F026
:100AC0008BFC00F002F810BD7047704706480078B4
:100AD000012808D105480078FF2804D2034800788F
:100AE000401C0249087070475E0000205100002041
:100AF00010B500241A480078012830D1FFF734FBE4
:100B000004461848007820B116480078401E154960
:100B1000087014480078F8B913480078E0B900F07C
:100B2000EFFC12481249097850F821001149086079
:100B30000F4800781049097888420DD00D480068A8
:100B4000806B401C0B49096888630C480068401C96
:100B50000A490860FFF727FB2046FFF709FB10BD95
:100B60005E0000205100002052000020600D002097
:100B7000540000206C0000205300002038000020AA
:100B800010B500240B480078012811D1FFF7ECFACA
:100B900004460948007840B908480078FF2804D284
:100BA00006480078401C054908702046FFF7E0FA27
:100BB00010BD00005E000020510000205200002007
:100BC00010B5002413480078012821D1FFF7CCFA92
:100BD000044611480078C0B10F480078401E0E4905
:100BE00008700846007860B90C48007828B920469B
:100BF000FFF7BEFA00F04AFC0AE02046FFF7B8FA19
:100C000006E02046FFF7B4FA02E02046FFF7B0FA0C
:100C100010BD00005E0000205200002051000020A6
:100C200010B50B48007890B900F06AFC09480078CC
:100C30000949087009480749097850F8210008490E
:100C400008600846006807490860FFF794FA10BD7D
:100C50005E0000205400002053000020600D0020A2
:100C60006C0000206400002010B50024022000F079
:100C7000F5F9FFF779FA044600200B490860204691
:100C8000FFF776FA142000F0E9F9FFF76DFA044651
:100C9000054800680549086001200549087020469C
:100CA000FFF766FA10BD0000600000204800002039
:100CB00050000020704700002DE9FE4F06460F4609
:100CC00090461C464FF00009FFF74EFA81461F4838
:100CD000007828B14846FFF74BFA3C20BDE8FE8F6C
:100CE0001B4850F8240060BB0120194941F824003A
:100CF0004846FFF73DFA002342463946304600F0A9
:100D000009F98246002000900190034602465146B0
:100D10000290204600F00AFC054635B90D480078DF
:100D200001280CD100F0B2FB09E0FFF71DFA814663
:100D30000020074941F824004846FFF719FA2846E1
:100D4000CCE74846FFF714FA2820C7E751000020F7
:100D5000600D00205E0000202DE9F04F85B0814637
:100D60008A4693461C46DDE90F78129D00200390C9
:100D7000FFF7FAF903902348007830B10398FFF7A2
:100D8000F7F93C2005B0BDE8F08F1F4850F824006B
:100D900088BB01201C4941F824000398FFF7E8F9BB
:100DA0002A464146384600F0D1FC2B465A46514669
:100DB000484600F0AFF804901198CDE90080029504
:100DC0003A4620460E9B049900F0B0FB064636B921
:100DD0000E48007801280CD100F058FB09E0FFF71D
:100DE000C3F903900020084941F824000398FFF755
:100DF000BFF93046C6E7FFE70398FFF7B9F92820A7
:100E0000C0E7000051000020600D00205E000020BF
:100E1000704770472DE9F04106460F4614464FF0E3
:100E200000081548007818B112202070BDE8F08144
:100E3000FFF79AF98046FF2E03D11048006890F81A
:100E400032600F4850F826502DB94046FFF790F910
:100E500043202070EAE7012D05D14046FFF788F9CD
:100E600043202070E2E7EF644046FFF781F900205D
:100E7000207000BFDAE7000051000020640000206D
:100E8000600D0020704700002DE9F04707460D4631
:100E90004FF0000A002028606860FFF765F982467D
:100EA000FF2F03D11948006890F83270184850F8A5
:100EB00027402CB95046FFF75BF94320BDE8F08787
:100EC000012C04D15046FFF753F94320F6E7207C6C
:100ED00000F0010020B95046FFF74AF94520EDE740
:100EE0000026D4F80C90D4F808805046FFF740F95B
:100EF00000E0761C58F8041B0029FAD0B0002860E6
:100F0000A9EB0600800068600020D7E7640000209D
:100F1000600D002070B5044610464FF080750560E6
:100F2000051F28462C606FF00106051F28462E601D
:100F30004FF01236051F28462E604FF00336051F6E
:100F400028462E604FF00236051F28462E60761088
:100F5000051F28462E60051F284629604FF01136D0
:100F6000051F28462E604FF01036051F28462E60BC
:100F70004FF00936051F28462E604FF00836051F32
:100F800028462E604FF00736051F28462E604FF08A
:100F90000636051F28462E604FF00536051F2846E9
:100FA0002E604FF00436051F28462E6070BD0000ED
:100FB0002DE9F04105464FF00008FFF7D5F88046CF
:100FC000FF2D05D12048006890F83250012608E036
:100FD0001D48006890F83200A84201D1012600E0C7
:100FE00000261A4850F825402CB94046FFF7C0F8B3
:100FF0004820BDE8F081012C04D14046FFF7B8F845
:101000004320F6E794F834701148C05D94F8351029
:1010100088430F49C8550846C05D30B994F836106A
:101020000C48007888430B49087094F8300040F071
:10103000080084F830004046FFF79AF8012E01D1ED
:1010400000F024FA0020D4E764000020600D0020A6
:1010500056000020550000207047000070B505467E
:1010600000261748007800B170BD1648007800B11E
:10107000FAE71DB3FFF778F806461348006890F8C2
:1010800034401248005D1049096891F835108843D2
:101090000E4908550846005D40B90B48006890F8B5
:1010A00036100B48007888430949087006480068E4
:1010B000C5623046FFF75CF800F0E8F900BFD3E7FF
:1010C0005100002052000020640000205600002043
:1010D0005500002070B5002600F072F8FFF744F8C4
:1010E000064631480068401C2F4908603046FFF72B
:1010F0003FF82E480078012853D12D48007820B1C0
:10110000012804D0022809D103E001250BE00025C5
:1011100009E0012501202649087004E0012500208E
:101120002349087000BF00BF05B970BD214804689D
:1011300033E0FFF719F80646E06A50B3E06A401E54
:10114000E062E06A28BB94F8300000F0370040B15C
:1011500014F8300F00F0C800207001206070303C9F
:1011600002E0002084F8310094F8300000F008001C
:1011700078B93434A0781049097808430E490870CA
:1011800020780E49085C6178084314F834190B4A3A
:10119000505464693046FEF7EBFF94F832003F2864
:1011A000C7D100BFC1E700007C0000205E00002026
:1011B0007400002070000020550000205600002020
:1011C000704700002DE9F0415021114800F02CF942
:1011D00000250DE0681C86B20D4800EB051400EBFD
:1011E00006170020207067600AA0E060681C85B2C6
:1011F000042DEFD3064800EB05140020207060603A
:1012000004A0E060024804490860BDE8F0810000E5
:10121000100900203F0000004000002070B5C821E8
:10122000114800F001F900230FE0581C85B203EBD0
:1012300083000D4901EB800405EB850001EB80067E
:10124000002020706660581C83B2092BEDD303EB9D
:101250008300054901EB800400202070606008468F
:101260000249086070BD0000480800203C000020D2
:1012700000200A4908600A4908700A4908700A49AA
:1012800008700A4908700A4908600A4908600A4952
:1012900008600A4908600A49087070477C0000200D
:1012A00051000020520000205F0000205E0000205E
:1012B00038000020600000204C0000204800002082
:1012C0005000002000210A4A1170002004E0002193
:1012D000084A1154411CC8B20828F8D30021064A14
:1012E0001170064A1170064A1160064A1160704773
:1012F000550000205600002053000020540000201C
:101300006C0000206400002070B54FF47C71194817
:1013100000F08AF84FF48071174800F085F8002437
:1013200013E0601CC5B2C4EBC40000EB40001149DF
:1013300001EB8003C5EBC50000EB400001EB80062C
:101340005E610EA0D864601CC4B20B2CE9D3C4EB60
:10135000C40000EB4000074901EB80030020586106
:1013600006A0D864002006490860024805490860C4
:1013700070BD0000600E0020600D00203F000000E6
:10138000700000206800002000B587B00320002115
:1013900080220A4BCDE90132CDE903104FF6FF70F0
:1013A0003F23074A00900748FFF7D6FC06AA06A18C
:1013B0003F20FFF72FFD07B000BD0000600B0020AD
:1013C0005C0D00206116000875432F4F532D4949CD
:1013D0002049646C6500000000B587B0032000213F
:1013E00080220A4BCDE90132CDE903104FF6FE70A1
:1013F0003E23074A00900748FFF7AEFC06AA06A165
:101400003E20FFF707FD07B000BD00006009002087
:101410005C0B00208916000875432F4F532D494956
:10142000205374617400000004E0002200F8012BD6
:101430004A1E91B20029F8D1704700002DE9F04111
:1014400078211048FFF7F0FF00240DE0601C86B201
:1014500004EB44000B4901EBC00506EB460001EB31
:10146000C0072F60601C84B2042CEFD304EB44004F
:10147000044901EBC00500202860084602490860C5
:10148000BDE8F081501200207800002010B5002443
:10149000FEF76AFE044613480078F8B9124800784F
:1014A000E0B900F02DF811481149097850F82100F1
:1014B000104908600E4800780F49097888420DD01D
:1014C0000C480068806B401C0A49096888630B4817
:1014D0000068401C09490860FEF75EFE2046FEF7E2
:1014E00047FE10BD5100002052000020600D00207A
:1014F000540000206C000020530000203800002021
:101500000649074A1278885C0649095C034A515C1F
:1015100001EBC001044A1170704700003828000830
:101520005500002056000020540000202DE9F84FFF
:1015300005460F4690469946DDE90AAB002000902B
:10154000FEF712FE00903F480468002C74D0183457
:1015500054F8040C3B4908600098FEF709FE44F873
:10156000187CA576002020766076606144F814BC73
:1015700044F80CAC44F8108C0C9824F8080C24F8AF
:10158000069C0020E077E810207705F00700E07661
:10159000217F01208840A077E17E0120884060778C
:1015A00000206060E060A0602062A0626062E06293
:1015B000206325A06063183C002606E0002104F1AA
:1015C000500040F82610701CC6B2002EF6D02046FF
:1015D000FFF770FB2046FFF71BFCFEF7C5FD0090F0
:1015E0001A4840F825401A48006860610020A06150
:1015F0001748006810B116480068846114480460F8
:101600003434A078134909780843124908702078C7
:101610001149085C6178084314F834190E4A505493
:101620000E480078401C0D4908700098FEF7A0FD98
:101630000020BDE8F88FFFE70098FEF799FD4220F3
:10164000F7E70000680000203F000000600D002068
:101650007000002055000020560000205F00002090
:10166000002400BF00BFFEF77FFD04460548006868
:10167000401C044908602046FEF77AFDFFF7C9FBCD
:10168000F1E7000060000020002400BF02E02820F5
:10169000FFF7E4FC194800780028F8D018480068E3
:1016A0006421B0FBF1F0164908600846006828B9CB
:1016B000002014490870FF20FFF77AFC00BFFEF7F6
:1016C00053FD0446104800681049086000200E4988
:1016D00008602046FEF74CFD0C4800680849096880
:1016E000B0FBF1F0C0F1640006490870FFF7CAFBD7
:1016F00000F00EF81420FFF7B1FCE0E750000020E6
:101700004800002044000020600000204C00002021
:101710007CB5002514E069462846FFF7B5FB064670
:1017200066B9094850F8254044B1012C06D0D4E9E7
:10173000020100EB810060640198A064681CC5B2DE
:101740003F2DE8D97CBD0000600D002002F00103B0
:1017500043B102F002032BB102E0491E002308C08E
:101760000029FAD17047000029B1064A9269024364
:10177000044B9A6104E0034A92698243014B9A61E7
:10178000704700000010024030B500210022002404
:1017900000232D4D6D6805F00C0121B1042905D001
:1017A000082923D105E0294D056022E0274D056079
:1017B0001FE0254D6D6805F47012234D6D6805F42A
:1017C0008034022505EB92421CB9214D554305603A
:1017D0000BE01D4D6D6805F400351DB11C4D5543E2
:1017E000056002E0194D5543056002E0174D0560A4
:1017F00000BF00BF144D6D6805F0F0010909154DDB
:101800006B5C0568DD4045600F4D6D6805F4E06177
:10181000090A104D6B5C4568DD4085600A4D6D68B6
:1018200005F46051C90A0B4D6B5C4568DD40C5602D
:10183000054D6D6805F44041890B074D6B5CC5682B
:10184000B5FBF3F5056130BD0010024000127A00CF
:1018500000093D002200002032000020704710B532
:1018600000F002F810BD00000CB5002001900090BF
:101870003348006840F480303149086000BF304888
:10188000006800F4003000900198401C019000981E
:1018900018B90198B0F5A06FF1D12948006800F49B
:1018A000003010B10120009001E00020009000986D
:1018B000012843D12348006840F010002149086006
:1018C0000846006820F0030008600846006840F001
:1018D000020008601A484068194948600846406894
:1018E00048600846406840F48060486008464068A8
:1018F00020F47C1048600846406840F4E8104860D6
:101900000846006840F08070086000BF0C4800681E
:1019100000F000700028F9D00948406820F003006A
:10192000074948600846406840F00200486000BF30
:101930000348406800F00C000828F9D10CBD0000F5
:101940000010024000200240042808D14FF0E0219E
:10195000096941F004014FF0E022116107E04FF006
:10196000E021096921F004014FF0E0221161704784
:1019700010B505480078012805D1FFF7A7F8FFF753
:10198000A9FBFFF7B5F810BD5E00002010B51348A5
:10199000006840F00100114908600846406810499D
:1019A00008400E494860084600680E4908400B4947
:1019B00008600846006820F48020086008464068F7
:1019C00020F4FE0048604FF41F008860FFF747FFD7
:1019D0004FF000600449086010BD00000010024094
:1019E0000000FFF8FFFFF6FE08ED00E010B5FFF77E
:1019F0006DF840F225511E4800F04CF810B31C4819
:101A000000F004F9C4B21B48008800F40040C8B9D3
:101A10001848008800F4804060B10A2C03D00020F0
:101A20001449088020E01348008840F40040114920
:101A3000088019E00D2C06D10E48008840F4804043
:101A40000C49088010E00B480088C0F30D000A49DB
:101A50000C5408480088401C064908800846008845
:101A6000C72801DD00200880FFF742F810BD000004
:101A700000380140200000208007002021B1828929
:101A800042F40052828104E082894DF6FF731A40CD
:101A90008281704770B50246002400230025002093
:101AA00040F66A16B14200D100BFC1F3421501F001
:101AB0001F03012606FA03F3012D02D19689334054
:101AC00006E0022D02D1168A334001E0968A3340A7
:101AD0000C12012606FA04F41688344013B10CB136
:101AE000012000E0002070BDF0B503460024002670
:101AF0000025002040F66A17B94200D100BF184601
:101B0000C1F3421401F01F06012707FA06F5012C64
:101B100001D10C3004E0022C01D1103000E014306F
:101B20001AB107682F43076002E00768AF430760F8
:101B3000F0BD00002DE9F04786B005460E460024B2
:101B4000A24600BFA1460027B08900B100BF2F46C2
:101B50002C8A4CF6FF700440F08804432C82AC8938
:101B60004EF6F3100440B088318908437189084368
:101B70000443AC81AC8A4FF6FF400440B089044373
:101B8000AC8201A8FFF700FE1F48874202D1DDF8B2
:101B900010A001E0DDF80CA0A88900F4004040B1DD
:101BA0000AEBCA0000EB0A1031684900B0FBF1F8FB
:101BB00007E00AEBCA0000EB0A1031688900B0FBAD
:101BC000F1F86420B8FBF0F004012009642101FB66
:101BD0001089A88900F4004040B1322000EBC90010
:101BE000B0FBF1F000F00700044308E0322000EB06
:101BF00009106421B0FBF1F000F00F0004432C81C8
:101C000006B0BDE8F0870000003801400146888832
:101C1000C0F30800704700BFFEE700000FB4054B9B
:101C200010B503A9044A029800F0DAF810BC5DF878
:101C300014FB0000912600081C00002002E008C8E8
:101C4000121F08C1002AFAD170477047002001E036
:101C500001C1121F002AFBD1704700002DE9FF5F70
:101C600082B00021DDE90430020DDDF840B003430D
:101C700018D044F61050A2F2FF32424315141198C6
:101C800001281FD0A5EB0B00401C5FEA000A4FF0B3
:101C900000064E4FDFF83891B046504615D5CAF1D0
:101CA000000413E0119801244AA3012801D16FEA2E
:101CB0000B010298119AC0E90031C0E9024206B056
:101CC000BDE8F09FCBF10000DFE704460021404A69
:101CD000491842EB0450CDE9001012E0E00707D0AC
:101CE00032463B4640464946FEF728FC8046894638
:101CF00032463B4610461946FEF720FC06460F4684
:101D00006410002CEAD1DDE90401DDE90023BAF119
:101D1000000F06DAFEF712FC42464B46FEF70EFCB9
:101D200005E0FEF77DFC42464B46FEF779FC044693
:101D30000E460022284BFEF7FBFC03D84FF0FF3085
:101D4000014607E00022254B20463146FEF74FFBB7
:101D5000FEF7D5FC102409E0002C0ADB0A22002340
:101D6000FEF7DDFA039B30321A55641E50EA010279
:101D7000F2D1641C039AC4F111031444119A012A8C
:101D800003D0012208430DD10AE0084304D000200B
:101D90004FF0110B119072E7A3EB0B056D1E0DE0D8
:101DA0005B4504DD4FF0000205F1010504E003DAB4
:101DB0004FF00002A5F10105002AECD0029811991C
:101DC000C0E90231C0E9004579E700000000144095
:101DD0000000F03F300000000000F0430000E03F52
:101DE0002DE9FF4F95B09B468946064600250FE238
:101DF000252877D100242746F84A0121059400E0E0
:101E0000044316F8013F203B01FA03F01042F7D1DA
:101E100030782A2811D06FF02F033078A0F13002EB
:101E2000092A16D8059A44F0020402EB820203EB59
:101E300042021044761C0590EFE759F8042B0592F6
:101E4000002A03DA504244F40054059044F002049E
:101E5000761C30782E2816D116F8010F44F00404B1
:101E60002A280DD06FF02F023078A0F13003092B13
:101E700009D807EB870302EB4303C718761CF3E787
:101E800059F8047B761C30786C280FD006DC4C287F
:101E900017D068280DD06A2814D104E0742810D017
:101EA0007A280FD10DE044F400140AE044F48014C1
:101EB00001E044F440147278824202D104F58014A7
:101EC000761C761C307866280BD013DC582877D027
:101ED00009DC002875D04528F6D04628F4D04728DC
:101EE0001AD19DE118E0632835D0642879D065289F
:101EF00012D195E1702873D008DC6728F1D06928E9
:101F00006FD06E280DD06F2806D1B5E073282CD085
:101F1000752875D0782874D05A46179990476D1C4B
:101F200075E1C4F30250022809D003280DD0D9F876
:101F3000001004280DD00D6009F1040967E1D9F8FB
:101F40000010EA17C1E90052F6E7D9F800100D8039
:101F5000F2E70D70F0E719F8041B8DF8001000206F
:101F60008DF80100EA46012003E059F804AB4FF078
:101F7000FF3061074FF0000102D40DE008F10101CC
:101F80008846B9420FDA8045F8DB1AF808100029B4
:101F9000F4D108E008F1010188468142FADB1AF821
:101FA00008100029F6D105985B46A0EB08072146EA
:101FB0003846179A00F094FA284400EB080507E029
:101FC0004DE029E10DE01AF8010B5A4617999047A8
:101FD000B8F10108F7D25B4621463846179A13E15B
:101FE00042E00A220092C4F302524FF0000A022A91
:101FF00008D059F804CB032A4FEAEC710AD00DE05F
:1020000029E02AE009F1070121F00702F2E802C104
:10201000914609E00FFA8CFC4FEAEC71042A03D1D7
:102020004FFA8CFC4FEAEC71002907DA0A460021CE
:10203000DCF1000C61EB02012D2202E0220504D547
:102040002B228DF80420012203E0E20701D0202298
:10205000F7E7904659E00A2102E010220DE0102136
:102060004FF0000A00910BE010224FF0000A44F0FC
:1020700004040827009203E008224FF0000A0092AF
:10208000C4F30252022A05D059F804CB0021032AD6
:1020900008D009E009F1070121F00702F2E802C1C6
:1020A000914605E01FFA8CFC042A01D10CF0FF0CCC
:1020B0004FF00008220728D5702806D0009B83F037
:1020C000100353EA0A0305D00EE040228DF80420E5
:1020D000012208E05CEA010206D030228DF80420DB
:1020E0008DF8050002229046009B83F0080353EA16
:1020F0000A030AD15CEA010201D1620705D5302248
:102100008DF804204FF001087F1E582804D034A019
:1021100003900EA802900DE036A0F9E75346604602
:10212000009AFEF7FCF884460398825C0298401EF1
:10213000029002705CEA0100F0D1029806A9081A28
:1021400000F1200A600702D524F4803400E0012762
:10215000574502DDA7EB0A0000E0002000EB0A0172
:10216000009005984144401A0590E00306D45B4670
:102170002146179A059800F0B3F90544002706E0B8
:1021800001A85A46C05D179990476D1C7F1C4745B2
:10219000F6DBE0030CD55B462146179A059800F064
:1021A0009FF9054404E030205A46179990476D1C6A
:1021B0000099481E00900029F5DC08E00298029979
:1021C0005A460078491C0291179990476D1CBAF144
:1021D0000001AAF1010AF1DC65E100000928010013
:1021E000303132333435363738396162636465668D
:1021F000000000003031323334353637383941424F
:10220000434445460000000000F058F90544761CA0
:10221000307800287FF4ECAD19B02846BDE8F08F87
:10222000620700D4062709F1070222F0070CFCE838
:102230000223E14603F000485FEA080C02D00FF2E7
:10224000702C0DE05FEA045C02D50FF2682C07E009
:102250005FEAC47C02D00FF2602C01E0AFF2700C98
:102260004FF0FF3823F00043CDF850C065280CD064
:1022700006DC452809D046281DD047283DD13DE041
:10228000662818D067287ED138E00021112F01DBA5
:10229000112000E0781CCDE9000106A90EA8FFF787
:1022A000DDFCDDE90F010E9A03910021009207F198
:1022B000010A04914DE04FF000400097CDE9011074
:1022C00006A90EA8FFF7CAFCDDE90F0203920E9BD8
:1022D00011990022DDF80CA00093049211B9791C29
:1022E00000EB010AB7EB0A0004D4C0F1FF3007F19C
:1022F000010A0490AAEB0700019044E0012F00DAE4
:1023000001270021112F01DD112000E03846CDE921
:10231000000106A90EA8FFF7A1FCDDE90F010E9A46
:102320000391002104910092BA4621070CD403992D
:10233000514500DA8A46BAF1010F05DD009AAAF18B
:102340000101515C302908D0B84202DA10F1040FC3
:1023500006DA0121CDE9011015E0AAF10101E9E752
:10236000002805DC049901440491AAEB000102E075
:10237000411C514500DD8A460499401A401C0190D9
:102380004FF000400290200704D40198504501DB33
:10239000CDF8048000208DF84F0002980DF14F0712
:1023A000B0F1004F25D02B200E9002984FF002087C
:1023B00000280CDA404202902D200E9007E00A21FE
:1023C0000298FDF796FF3031029007F8011DB8F131
:1023D0000001A8F10108F2DC02980028EFD1791E73
:1023E0000E980870307800F0200040F0450007F8A3
:1023F000020D12A8C01B00F107081498007800B164
:10240000012000EB0A01019801EBE07105984144BD
:10241000401A401E0590E00306D45B462146179AF9
:10242000059800F05DF805441498007818B15A46F4
:10243000179990476D1CE00324D55B462146179AF7
:10244000059800F04DF805441CE00498002807DBCF
:10245000DDE90301884203DD0098405C179901E043
:10246000179930205A469047049805F10105401C01
:1024700004900198401E019004D12E205A461799CD
:1024800090476D1CBAF10001AAF1010ADDDC05E0FC
:1024900017F8010B5A46179990476D1CB8F10001C7
:1024A000A8F10108F4DC5B462146179A0598ABE6D3
:1024B0002D0000002B000000200000002DE9F0415D
:1024C000044600251E461746880404D405E0394614
:1024D0002020B0476D1C641EF9D52846BDE8F08168
:1024E0002DE9F041044600251E469046C80301D55B
:1024F000302700E02027880404D505E0414638460F
:10250000B0476D1C641EF9D52846BDE8F081000077
:1025100010B56FF00400FFF717FA10480068104973
:10252000B0FBF1F00F4908700C4800680C49B0FB93
:10253000F1F441F28830444305200B4908804FF004
:10254000E020006940F002004FF0E02108610846F9
:102550004461006940F00100086110BD04000020E2
:1025600000127A00180000201A00002070B50446FE
:102570000F480078A0B10F48007888B90E4800884D
:10258000844206DB0C48008894FBF0F5284600F0F6
:102590001DF80948008894FBF0F100FB114084B25B
:1025A0004FF47A7104FB01F000F016F870BD0000E2
:1025B0005E000020510000201A00002010B5FEF738
:1025C000DFFA10BD10B5FEF7FBFA10BD10B50446DA
:1025D0002046FEF743FD10BD2DE9F04707460026D3
:1025E0004FF0E020D0F814901148007807FB00F875
:1025F00000BFFFF7E3FF4FF0E020856911E04FF0E7
:10260000E0208469AC420CD0AC4202D2281B0644C4
:1026100003E0A9EB0400284406442546464500D3C0
:1026200000E0ECE700BFFFF7CDFFBDE8F08700005A
:102630001800002000241AE00D490E480068FDF73C
:10264000EDFD0C490860FDF78FFD04460948006860
:10265000FDF73CFE05462A460B4607A0FFF7DEFACB
:102660002046FDF785FD4FF4FA70FFF77FFFE3E7A3
:102670000AD7233C00000020666C6F61745F6E75A2
:102680006D20B5C4D6B5CEAAA3BA2534660D0A000E
:1026900000BF054A128802F04002002AF9D0C2B2F7
:1026A000014B1B1D1A807047003801400DE00020CF
:1026B000064908605020FFF759FF01200449C1F87E
:1026C00094014FF4C870FFF751FFF0E79481214265
:1026D000008021420EE00020074908604FF4967008
:1026E000FFF744FF01200549C1F894014FF49670AB
:1026F000FFF73CFFEFE70000940123420000234274
:1027000010B5FFF705FF4FF4A060FEF7BDF94FF4D9
:10271000E13000F041F8FEF755F9FEF7BFF90A2362
:10272000044A00210448FEF7C7FAFEF779FA0020B0
:1027300010BD00007C0200203D27000870B5044653
:10274000002500BFFEF790FAFDF70EFD05460723B2
:102750000B4A00210B48FEF7AFFA06230A4A002174
:102760000A48FEF7A9FA0523094A00210948FEF79D
:10277000A3FA0A20FEF71CFC2846FDF7F9FC70BD01
:102780007C030020AD2600087C050020D52600082B
:102790007C0700203526000810B586B004460121CC
:1027A00044F20400FEF7E0FF4FF40070ADF81400AF
:1027B00003208DF8160018208DF8170005A91C4875
:1027C000FEF771F84FF48060ADF8140004208DF826
:1027D000170005A91648FEF766F825208DF80000B9
:1027E00003208DF801008DF8020001208DF8030010
:1027F0006846FEF711F901940020ADF80800ADF825
:102800000A00ADF80C00ADF810000C20ADF80E0079
:1028100001A90848FFF78EF9012240F22551054829
:10282000FFF762F901210348FFF728F906B010BD50
:1028300000080140003801400000010002000100D2
:102840000300010002000100040001000200010079
:102850000300010002000100050001000200010068
:102860000300010002000100040001000200010059
:102870000300010002000100060001000200010047
:102880000300010002000100040001000200010039
:102890000300010002000100050001000200010028
:1028A0000300010002000100040001000200010019
:1028B0000300010002000100070001000200010006
:1028C00003000100020001000400010002000100F9
:1028D00003000100020001000500010002000100E8
:1028E00003000100020001000400010002000100D9
:1028F00003000100020001000600010002000100C7
:1029000003000100020001000400010002000100B8
:1029100003000100020001000500010002000100A7
:102920000300010002000100040001000200010098
:1029300003000100020001005829000800000020E7
:10294000800000003C1C0008D829000880000020FE
:10295000481600004C1C00080AD7233C00A24A0479
:10296000000000000000000001020304060708093F
:102970000000000000000000000000000000010254
:102980000304010203040607080902040608000004
:102990000000000000000000000000000000000037
:1029A0000000000000000000000000000000000027
:1029B0000000000000000000000000000000000017
:1029C0000000000000000000000000000000000007
:0829D0000000000000000000FF
:0400000508000145A9
:00000001FF
